{
  "abi": [
    {
      "inputs": [
        {
          "internalType": "address",
          "name": "premintReceiver",
          "type": "address"
        },
        {
          "internalType": "uint256",
          "name": "premintAmount",
          "type": "uint256"
        },
        {
          "internalType": "uint256",
          "name": "_maxSupply",
          "type": "uint256"
        }
      ],
      "stateMutability": "nonpayable",
      "type": "constructor"
    },
    {
      "inputs": [],
      "name": "InvalidShortString",
      "type": "error"
    },
    {
      "inputs": [
        {
          "internalType": "string",
          "name": "str",
          "type": "string"
        }
      ],
      "name": "StringTooLong",
      "type": "error"
    },
    {
      "anonymous": false,
      "inputs": [
        {
          "indexed": true,
          "internalType": "address",
          "name": "owner",
          "type": "address"
        },
        {
          "indexed": true,
          "internalType": "address",
          "name": "spender",
          "type": "address"
        },
        {
          "indexed": false,
          "internalType": "uint256",
          "name": "value",
          "type": "uint256"
        }
      ],
      "name": "Approval",
      "type": "event"
    },
    {
      "anonymous": false,
      "inputs": [],
      "name": "EIP712DomainChanged",
      "type": "event"
    },
    {
      "anonymous": false,
      "inputs": [
        {
          "indexed": true,
          "internalType": "address",
          "name": "previousOwner",
          "type": "address"
        },
        {
          "indexed": true,
          "internalType": "address",
          "name": "newOwner",
          "type": "address"
        }
      ],
      "name": "OwnershipTransferred",
      "type": "event"
    },
    {
      "anonymous": false,
      "inputs": [
        {
          "indexed": true,
          "internalType": "address",
          "name": "from",
          "type": "address"
        },
        {
          "indexed": true,
          "internalType": "address",
          "name": "to",
          "type": "address"
        },
        {
          "indexed": false,
          "internalType": "uint256",
          "name": "value",
          "type": "uint256"
        }
      ],
      "name": "Transfer",
      "type": "event"
    },
    {
      "inputs": [],
      "name": "DOMAIN_SEPARATOR",
      "outputs": [
        {
          "internalType": "bytes32",
          "name": "",
          "type": "bytes32"
        }
      ],
      "stateMutability": "view",
      "type": "function"
    },
    {
      "inputs": [
        {
          "internalType": "address",
          "name": "owner",
          "type": "address"
        },
        {
          "internalType": "address",
          "name": "spender",
          "type": "address"
        }
      ],
      "name": "allowance",
      "outputs": [
        {
          "internalType": "uint256",
          "name": "",
          "type": "uint256"
        }
      ],
      "stateMutability": "view",
      "type": "function"
    },
    {
      "inputs": [
        {
          "internalType": "address",
          "name": "spender",
          "type": "address"
        },
        {
          "internalType": "uint256",
          "name": "amount",
          "type": "uint256"
        }
      ],
      "name": "approve",
      "outputs": [
        {
          "internalType": "bool",
          "name": "",
          "type": "bool"
        }
      ],
      "stateMutability": "nonpayable",
      "type": "function"
    },
    {
      "inputs": [
        {
          "internalType": "address",
          "name": "account",
          "type": "address"
        }
      ],
      "name": "balanceOf",
      "outputs": [
        {
          "internalType": "uint256",
          "name": "",
          "type": "uint256"
        }
      ],
      "stateMutability": "view",
      "type": "function"
    },
    {
      "inputs": [],
      "name": "decimals",
      "outputs": [
        {
          "internalType": "uint8",
          "name": "",
          "type": "uint8"
        }
      ],
      "stateMutability": "view",
      "type": "function"
    },
    {
      "inputs": [
        {
          "internalType": "address",
          "name": "spender",
          "type": "address"
        },
        {
          "internalType": "uint256",
          "name": "subtractedValue",
          "type": "uint256"
        }
      ],
      "name": "decreaseAllowance",
      "outputs": [
        {
          "internalType": "bool",
          "name": "",
          "type": "bool"
        }
      ],
      "stateMutability": "nonpayable",
      "type": "function"
    },
    {
      "inputs": [],
      "name": "eip712Domain",
      "outputs": [
        {
          "internalType": "bytes1",
          "name": "fields",
          "type": "bytes1"
        },
        {
          "internalType": "string",
          "name": "name",
          "type": "string"
        },
        {
          "internalType": "string",
          "name": "version",
          "type": "string"
        },
        {
          "internalType": "uint256",
          "name": "chainId",
          "type": "uint256"
        },
        {
          "internalType": "address",
          "name": "verifyingContract",
          "type": "address"
        },
        {
          "internalType": "bytes32",
          "name": "salt",
          "type": "bytes32"
        },
        {
          "internalType": "uint256[]",
          "name": "extensions",
          "type": "uint256[]"
        }
      ],
      "stateMutability": "view",
      "type": "function"
    },
    {
      "inputs": [
        {
          "internalType": "address",
          "name": "spender",
          "type": "address"
        },
        {
          "internalType": "uint256",
          "name": "addedValue",
          "type": "uint256"
        }
      ],
      "name": "increaseAllowance",
      "outputs": [
        {
          "internalType": "bool",
          "name": "",
          "type": "bool"
        }
      ],
      "stateMutability": "nonpayable",
      "type": "function"
    },
    {
      "inputs": [],
      "name": "maxSupply",
      "outputs": [
        {
          "internalType": "uint256",
          "name": "",
          "type": "uint256"
        }
      ],
      "stateMutability": "view",
      "type": "function"
    },
    {
      "inputs": [
        {
          "internalType": "address",
          "name": "account",
          "type": "address"
        },
        {
          "internalType": "uint256",
          "name": "amount",
          "type": "uint256"
        }
      ],
      "name": "mint",
      "outputs": [],
      "stateMutability": "nonpayable",
      "type": "function"
    },
    {
      "inputs": [],
      "name": "name",
      "outputs": [
        {
          "internalType": "string",
          "name": "",
          "type": "string"
        }
      ],
      "stateMutability": "view",
      "type": "function"
    },
    {
      "inputs": [
        {
          "internalType": "address",
          "name": "owner",
          "type": "address"
        }
      ],
      "name": "nonces",
      "outputs": [
        {
          "internalType": "uint256",
          "name": "",
          "type": "uint256"
        }
      ],
      "stateMutability": "view",
      "type": "function"
    },
    {
      "inputs": [],
      "name": "owner",
      "outputs": [
        {
          "internalType": "address",
          "name": "",
          "type": "address"
        }
      ],
      "stateMutability": "view",
      "type": "function"
    },
    {
      "inputs": [
        {
          "internalType": "address",
          "name": "owner",
          "type": "address"
        },
        {
          "internalType": "address",
          "name": "spender",
          "type": "address"
        },
        {
          "internalType": "uint256",
          "name": "value",
          "type": "uint256"
        },
        {
          "internalType": "uint256",
          "name": "deadline",
          "type": "uint256"
        },
        {
          "internalType": "uint8",
          "name": "v",
          "type": "uint8"
        },
        {
          "internalType": "bytes32",
          "name": "r",
          "type": "bytes32"
        },
        {
          "internalType": "bytes32",
          "name": "s",
          "type": "bytes32"
        }
      ],
      "name": "permit",
      "outputs": [],
      "stateMutability": "nonpayable",
      "type": "function"
    },
    {
      "inputs": [],
      "name": "renounceOwnership",
      "outputs": [],
      "stateMutability": "nonpayable",
      "type": "function"
    },
    {
      "inputs": [],
      "name": "symbol",
      "outputs": [
        {
          "internalType": "string",
          "name": "",
          "type": "string"
        }
      ],
      "stateMutability": "view",
      "type": "function"
    },
    {
      "inputs": [],
      "name": "totalSupply",
      "outputs": [
        {
          "internalType": "uint256",
          "name": "",
          "type": "uint256"
        }
      ],
      "stateMutability": "view",
      "type": "function"
    },
    {
      "inputs": [
        {
          "internalType": "address",
          "name": "to",
          "type": "address"
        },
        {
          "internalType": "uint256",
          "name": "amount",
          "type": "uint256"
        }
      ],
      "name": "transfer",
      "outputs": [
        {
          "internalType": "bool",
          "name": "",
          "type": "bool"
        }
      ],
      "stateMutability": "nonpayable",
      "type": "function"
    },
    {
      "inputs": [
        {
          "internalType": "address",
          "name": "from",
          "type": "address"
        },
        {
          "internalType": "address",
          "name": "to",
          "type": "address"
        },
        {
          "internalType": "uint256",
          "name": "amount",
          "type": "uint256"
        }
      ],
      "name": "transferFrom",
      "outputs": [
        {
          "internalType": "bool",
          "name": "",
          "type": "bool"
        }
      ],
      "stateMutability": "nonpayable",
      "type": "function"
    },
    {
      "inputs": [
        {
          "internalType": "address",
          "name": "newOwner",
          "type": "address"
        }
      ],
      "name": "transferOwnership",
      "outputs": [],
      "stateMutability": "nonpayable",
      "type": "function"
    }
  ],
  "bytecode": {
    "object": "0x6101806040523480156200001257600080fd5b50604051620022cc380380620022cc8339810160408190526200003591620003ee565b604051806040016040528060068152602001654c6f7265756d60d01b81525080604051806040016040528060018152602001603160f81b815250604051806040016040528060068152602001654c6f7265756d60d01b815250604051806040016040528060048152602001634c4f524560e01b8152508160039081620000bc9190620004d7565b506004620000cb8282620004d7565b505050620000e96005836200023e60201b620009bc1790919060201c565b61012052620001068160066200023e602090811b620009bc17901c565b61014052815160208084019190912060e052815190820120610100524660a0526200019460e05161010051604080517f8b73c3c69bb8fe3d512ecc4cf759cc79239f7b179b0ffacaa9a75d522b39400f60208201529081019290925260608201524660808201523060a082015260009060c00160405160208183030381529060405280519060200120905090565b60805250503060c05250620001a9336200028e565b81811015620002255760405162461bcd60e51b815260206004820152603560248201527f4c6f7265756d546f6b656e3a3a636f6e7374727563746f722829205f6d61785360448201527f7570706c79203c207072656d696e74416d6f756e74000000000000000000000060648201526084015b60405180910390fd5b620002318383620002e0565b61016052506200063a9050565b60006020835110156200025e576200025683620003a3565b905062000288565b826200027583620003e660201b620009ed1760201c565b90620002829082620004d7565b5060ff90505b92915050565b600980546001600160a01b038381166001600160a01b0319831681179093556040519116919082907f8be0079c531659141344cd1fd0a4f28419497f9722a3daafe3b4186f6b6457e090600090a35050565b6001600160a01b038216620003385760405162461bcd60e51b815260206004820152601f60248201527f45524332303a206d696e7420746f20746865207a65726f20616464726573730060448201526064016200021c565b80600260008282546200034c9190620005a3565b90915550506001600160a01b038216600081815260208181526040808320805486019055518481527fddf252ad1be2c89b69c2b068fc378daa952ba7f163c4a11628f55a4df523b3ef910160405180910390a35050565b600080829050601f81511115620003d1578260405163305a27a960e01b81526004016200021c9190620005c5565b8051620003de8262000615565b179392505050565b90565b505050565b6000806000606084860312156200040457600080fd5b83516001600160a01b03811681146200041c57600080fd5b602085015160409095015190969495509392505050565b634e487b7160e01b600052604160045260246000fd5b600181811c908216806200045e57607f821691505b6020821081036200047f57634e487b7160e01b600052602260045260246000fd5b50919050565b601f821115620003e957600081815260208120601f850160051c81016020861015620004ae5750805b601f850160051c820191505b81811015620004cf57828155600101620004ba565b505050505050565b81516001600160401b03811115620004f357620004f362000433565b6200050b8162000504845462000449565b8462000485565b602080601f8311600181146200054357600084156200052a5750858301515b600019600386901b1c1916600185901b178555620004cf565b600085815260208120601f198616915b82811015620005745788860151825594840194600190910190840162000553565b5085821015620005935787850151600019600388901b60f8161c191681555b5050505050600190811b01905550565b808201808211156200028857634e487b7160e01b600052601160045260246000fd5b600060208083528351808285015260005b81811015620005f457858101830151858201604001528201620005d6565b506000604082860101526040601f19601f8301168501019250505092915050565b805160208083015191908110156200047f5760001960209190910360031b1b16919050565b60805160a05160c05160e05161010051610120516101405161016051611c25620006a7600039600081816102f001526104a0015260006105ec015260006105c101526000610fd001526000610fa801526000610f0301526000610f2d01526000610f570152611c256000f3fe608060405234801561001057600080fd5b506004361061016c5760003560e01c80637ecebe00116100cd578063a9059cbb11610081578063d5abeb0111610066578063d5abeb01146102eb578063dd62ed3e14610312578063f2fde38b1461035857600080fd5b8063a9059cbb146102c5578063d505accf146102d857600080fd5b80638da5cb5b116100b25780638da5cb5b1461028257806395d89b41146102aa578063a457c2d7146102b257600080fd5b80637ecebe001461025457806384b0196e1461026757600080fd5b80633644e5151161012457806340c10f191161010957806340c10f191461020157806370a0823114610216578063715018a61461024c57600080fd5b80633644e515146101e657806339509351146101ee57600080fd5b806318160ddd1161015557806318160ddd146101b257806323b872dd146101c4578063313ce567146101d757600080fd5b806306fdde0314610171578063095ea7b31461018f575b600080fd5b61017961036b565b6040516101869190611737565b60405180910390f35b6101a261019d36600461177a565b6103fd565b6040519015158152602001610186565b6002545b604051908152602001610186565b6101a26101d23660046117a4565b610417565b60405160128152602001610186565b6101b661043b565b6101a26101fc36600461177a565b61044a565b61021461020f36600461177a565b610496565b005b6101b66102243660046117e0565b73ffffffffffffffffffffffffffffffffffffffff1660009081526020819052604090205490565b610214610574565b6101b66102623660046117e0565b610588565b61026f6105b3565b60405161018697969594939291906117fb565b60095460405173ffffffffffffffffffffffffffffffffffffffff9091168152602001610186565b610179610658565b6101a26102c036600461177a565b610667565b6101a26102d336600461177a565b610738565b6102146102e63660046118ba565b610746565b6101b67f000000000000000000000000000000000000000000000000000000000000000081565b6101b661032036600461192d565b73ffffffffffffffffffffffffffffffffffffffff918216600090815260016020908152604080832093909416825291909152205490565b6102146103663660046117e0565b610905565b60606003805461037a90611960565b80601f01602080910402602001604051908101604052809291908181526020018280546103a690611960565b80156103f35780601f106103c8576101008083540402835291602001916103f3565b820191906000526020600020905b8154815290600101906020018083116103d657829003601f168201915b5050505050905090565b60003361040b8185856109f0565b60019150505b92915050565b600033610425858285610ba3565b610430858585610c7a565b506001949350505050565b6000610445610ee9565b905090565b33600081815260016020908152604080832073ffffffffffffffffffffffffffffffffffffffff8716845290915281205490919061040b90829086906104919087906119ad565b6109f0565b61049e611021565b7f0000000000000000000000000000000000000000000000000000000000000000816104c960025490565b6104d391906119ad565b1115610566576040517f08c379a000000000000000000000000000000000000000000000000000000000815260206004820152603660248201527f4c6f7265756d546f6b656e3a3a6d696e74282920746f74616c537570706c792860448201527f29202b20616d6f756e74203e206d6178537570706c790000000000000000000060648201526084015b60405180910390fd5b61057082826110a2565b5050565b61057c611021565b6105866000611195565b565b73ffffffffffffffffffffffffffffffffffffffff8116600090815260076020526040812054610411565b6000606080828080836105e77f0000000000000000000000000000000000000000000000000000000000000000600561120c565b6106127f0000000000000000000000000000000000000000000000000000000000000000600661120c565b604080516000808252602082019092527f0f000000000000000000000000000000000000000000000000000000000000009b939a50919850469750309650945092509050565b60606004805461037a90611960565b33600081815260016020908152604080832073ffffffffffffffffffffffffffffffffffffffff871684529091528120549091908381101561072b576040517f08c379a000000000000000000000000000000000000000000000000000000000815260206004820152602560248201527f45524332303a2064656372656173656420616c6c6f77616e63652062656c6f7760448201527f207a65726f000000000000000000000000000000000000000000000000000000606482015260840161055d565b61043082868684036109f0565b60003361040b818585610c7a565b834211156107b0576040517f08c379a000000000000000000000000000000000000000000000000000000000815260206004820152601d60248201527f45524332305065726d69743a206578706972656420646561646c696e65000000604482015260640161055d565b60007f6e71edae12b1b97f4d1f60370fef10105fa2faae0126114a169c64845d6126c98888886107df8c6112b0565b60408051602081019690965273ffffffffffffffffffffffffffffffffffffffff94851690860152929091166060840152608083015260a082015260c0810186905260e0016040516020818303038152906040528051906020012090506000610847826112e5565b905060006108578287878761132d565b90508973ffffffffffffffffffffffffffffffffffffffff168173ffffffffffffffffffffffffffffffffffffffff16146108ee576040517f08c379a000000000000000000000000000000000000000000000000000000000815260206004820152601e60248201527f45524332305065726d69743a20696e76616c6964207369676e61747572650000604482015260640161055d565b6108f98a8a8a6109f0565b50505050505050505050565b61090d611021565b73ffffffffffffffffffffffffffffffffffffffff81166109b0576040517f08c379a000000000000000000000000000000000000000000000000000000000815260206004820152602660248201527f4f776e61626c653a206e6577206f776e657220697320746865207a65726f206160448201527f6464726573730000000000000000000000000000000000000000000000000000606482015260840161055d565b6109b981611195565b50565b60006020835110156109d8576109d183611355565b9050610411565b816109e38482611a64565b5060ff9050610411565b90565b73ffffffffffffffffffffffffffffffffffffffff8316610a92576040517f08c379a0000000000000000000000000000000000000000000000000000000008152602060048201526024808201527f45524332303a20617070726f76652066726f6d20746865207a65726f2061646460448201527f7265737300000000000000000000000000000000000000000000000000000000606482015260840161055d565b73ffffffffffffffffffffffffffffffffffffffff8216610b35576040517f08c379a000000000000000000000000000000000000000000000000000000000815260206004820152602260248201527f45524332303a20617070726f766520746f20746865207a65726f20616464726560448201527f7373000000000000000000000000000000000000000000000000000000000000606482015260840161055d565b73ffffffffffffffffffffffffffffffffffffffff83811660008181526001602090815260408083209487168084529482529182902085905590518481527f8c5be1e5ebec7d5bd14f71427d1e84f3dd0314c0f7b2291e5b200ac8c7c3b925910160405180910390a3505050565b73ffffffffffffffffffffffffffffffffffffffff8381166000908152600160209081526040808320938616835292905220547fffffffffffffffffffffffffffffffffffffffffffffffffffffffffffffffff8114610c745781811015610c67576040517f08c379a000000000000000000000000000000000000000000000000000000000815260206004820152601d60248201527f45524332303a20696e73756666696369656e7420616c6c6f77616e6365000000604482015260640161055d565b610c7484848484036109f0565b50505050565b73ffffffffffffffffffffffffffffffffffffffff8316610d1d576040517f08c379a000000000000000000000000000000000000000000000000000000000815260206004820152602560248201527f45524332303a207472616e736665722066726f6d20746865207a65726f20616460448201527f6472657373000000000000000000000000000000000000000000000000000000606482015260840161055d565b73ffffffffffffffffffffffffffffffffffffffff8216610dc0576040517f08c379a000000000000000000000000000000000000000000000000000000000815260206004820152602360248201527f45524332303a207472616e7366657220746f20746865207a65726f206164647260448201527f6573730000000000000000000000000000000000000000000000000000000000606482015260840161055d565b73ffffffffffffffffffffffffffffffffffffffff831660009081526020819052604090205481811015610e76576040517f08c379a000000000000000000000000000000000000000000000000000000000815260206004820152602660248201527f45524332303a207472616e7366657220616d6f756e742065786365656473206260448201527f616c616e63650000000000000000000000000000000000000000000000000000606482015260840161055d565b73ffffffffffffffffffffffffffffffffffffffff848116600081815260208181526040808320878703905593871680835291849020805487019055925185815290927fddf252ad1be2c89b69c2b068fc378daa952ba7f163c4a11628f55a4df523b3ef910160405180910390a3610c74565b60003073ffffffffffffffffffffffffffffffffffffffff7f000000000000000000000000000000000000000000000000000000000000000016148015610f4f57507f000000000000000000000000000000000000000000000000000000000000000046145b15610f7957507f000000000000000000000000000000000000000000000000000000000000000090565b610445604080517f8b73c3c69bb8fe3d512ecc4cf759cc79239f7b179b0ffacaa9a75d522b39400f60208201527f0000000000000000000000000000000000000000000000000000000000000000918101919091527f000000000000000000000000000000000000000000000000000000000000000060608201524660808201523060a082015260009060c00160405160208183030381529060405280519060200120905090565b60095473ffffffffffffffffffffffffffffffffffffffff163314610586576040517f08c379a000000000000000000000000000000000000000000000000000000000815260206004820181905260248201527f4f776e61626c653a2063616c6c6572206973206e6f7420746865206f776e6572604482015260640161055d565b73ffffffffffffffffffffffffffffffffffffffff821661111f576040517f08c379a000000000000000000000000000000000000000000000000000000000815260206004820152601f60248201527f45524332303a206d696e7420746f20746865207a65726f206164647265737300604482015260640161055d565b806002600082825461113191906119ad565b909155505073ffffffffffffffffffffffffffffffffffffffff8216600081815260208181526040808320805486019055518481527fddf252ad1be2c89b69c2b068fc378daa952ba7f163c4a11628f55a4df523b3ef910160405180910390a35050565b6009805473ffffffffffffffffffffffffffffffffffffffff8381167fffffffffffffffffffffffff0000000000000000000000000000000000000000831681179093556040519116919082907f8be0079c531659141344cd1fd0a4f28419497f9722a3daafe3b4186f6b6457e090600090a35050565b606060ff831461121f576109d1836113b1565b81805461122b90611960565b80601f016020809104026020016040519081016040528092919081815260200182805461125790611960565b80156112a45780601f10611279576101008083540402835291602001916112a4565b820191906000526020600020905b81548152906001019060200180831161128757829003601f168201915b50505050509050610411565b73ffffffffffffffffffffffffffffffffffffffff811660009081526007602052604090208054600181018255905b50919050565b60006104116112f2610ee9565b836040517f19010000000000000000000000000000000000000000000000000000000000008152600281019290925260228201526042902090565b600080600061133e878787876113f0565b9150915061134b816114df565b5095945050505050565b600080829050601f8151111561139957826040517f305a27a900000000000000000000000000000000000000000000000000000000815260040161055d9190611737565b80516113a482611b7e565b179392505050565b505050565b606060006113be83611692565b604080516020808252818301909252919250600091906020820181803683375050509182525060208101929092525090565b6000807f7fffffffffffffffffffffffffffffff5d576e7357a4501ddfe92f46681b20a083111561142757506000905060036114d6565b6040805160008082526020820180845289905260ff881692820192909252606081018690526080810185905260019060a0016020604051602081039080840390855afa15801561147b573d6000803e3d6000fd5b50506040517fffffffffffffffffffffffffffffffffffffffffffffffffffffffffffffffe0015191505073ffffffffffffffffffffffffffffffffffffffff81166114cf576000600192509250506114d6565b9150600090505b94509492505050565b60008160048111156114f3576114f3611bc0565b036114fb5750565b600181600481111561150f5761150f611bc0565b03611576576040517f08c379a000000000000000000000000000000000000000000000000000000000815260206004820152601860248201527f45434453413a20696e76616c6964207369676e61747572650000000000000000604482015260640161055d565b600281600481111561158a5761158a611bc0565b036115f1576040517f08c379a000000000000000000000000000000000000000000000000000000000815260206004820152601f60248201527f45434453413a20696e76616c6964207369676e6174757265206c656e67746800604482015260640161055d565b600381600481111561160557611605611bc0565b036109b9576040517f08c379a000000000000000000000000000000000000000000000000000000000815260206004820152602260248201527f45434453413a20696e76616c6964207369676e6174757265202773272076616c60448201527f7565000000000000000000000000000000000000000000000000000000000000606482015260840161055d565b600060ff8216601f811115610411576040517fb3512b0c00000000000000000000000000000000000000000000000000000000815260040160405180910390fd5b6000815180845260005b818110156116f9576020818501810151868301820152016116dd565b5060006020828601015260207fffffffffffffffffffffffffffffffffffffffffffffffffffffffffffffffe0601f83011685010191505092915050565b60208152600061174a60208301846116d3565b9392505050565b803573ffffffffffffffffffffffffffffffffffffffff8116811461177557600080fd5b919050565b6000806040838503121561178d57600080fd5b61179683611751565b946020939093013593505050565b6000806000606084860312156117b957600080fd5b6117c284611751565b92506117d060208501611751565b9150604084013590509250925092565b6000602082840312156117f257600080fd5b61174a82611751565b7fff00000000000000000000000000000000000000000000000000000000000000881681526000602060e08184015261183760e084018a6116d3565b8381036040850152611849818a6116d3565b6060850189905273ffffffffffffffffffffffffffffffffffffffff8816608086015260a0850187905284810360c0860152855180825283870192509083019060005b818110156118a85783518352928401929184019160010161188c565b50909c9b505050505050505050505050565b600080600080600080600060e0888a0312156118d557600080fd5b6118de88611751565b96506118ec60208901611751565b95506040880135945060608801359350608088013560ff8116811461191057600080fd5b9699959850939692959460a0840135945060c09093013592915050565b6000806040838503121561194057600080fd5b61194983611751565b915061195760208401611751565b90509250929050565b600181811c9082168061197457607f821691505b6020821081036112df577f4e487b7100000000000000000000000000000000000000000000000000000000600052602260045260246000fd5b80820180821115610411577f4e487b7100000000000000000000000000000000000000000000000000000000600052601160045260246000fd5b7f4e487b7100000000000000000000000000000000000000000000000000000000600052604160045260246000fd5b601f8211156113ac57600081815260208120601f850160051c81016020861015611a3d5750805b601f850160051c820191505b81811015611a5c57828155600101611a49565b505050505050565b815167ffffffffffffffff811115611a7e57611a7e6119e7565b611a9281611a8c8454611960565b84611a16565b602080601f831160018114611ae55760008415611aaf5750858301515b7fffffffffffffffffffffffffffffffffffffffffffffffffffffffffffffffff600386901b1c1916600185901b178555611a5c565b6000858152602081207fffffffffffffffffffffffffffffffffffffffffffffffffffffffffffffffe08616915b82811015611b3257888601518255948401946001909101908401611b13565b5085821015611b6e57878501517fffffffffffffffffffffffffffffffffffffffffffffffffffffffffffffffff600388901b60f8161c191681555b5050505050600190811b01905550565b805160208083015191908110156112df577fffffffffffffffffffffffffffffffffffffffffffffffffffffffffffffffff60209190910360031b1b16919050565b7f4e487b7100000000000000000000000000000000000000000000000000000000600052602160045260246000fdfea26469706673582212208a6f8b61a02b806776885effbc0d4e6d5ba2da291fde65304d7978833cf2530b64736f6c63430008110033",
    "linkReferences": {}
  },
  "methodIdentifiers": {
    "DOMAIN_SEPARATOR()": "3644e515",
    "allowance(address,address)": "dd62ed3e",
    "approve(address,uint256)": "095ea7b3",
    "balanceOf(address)": "70a08231",
    "decimals()": "313ce567",
    "decreaseAllowance(address,uint256)": "a457c2d7",
    "eip712Domain()": "84b0196e",
    "increaseAllowance(address,uint256)": "39509351",
    "maxSupply()": "d5abeb01",
    "mint(address,uint256)": "40c10f19",
    "name()": "06fdde03",
    "nonces(address)": "7ecebe00",
    "owner()": "8da5cb5b",
    "permit(address,address,uint256,uint256,uint8,bytes32,bytes32)": "d505accf",
    "renounceOwnership()": "715018a6",
    "symbol()": "95d89b41",
    "totalSupply()": "18160ddd",
    "transfer(address,uint256)": "a9059cbb",
    "transferFrom(address,address,uint256)": "23b872dd",
    "transferOwnership(address)": "f2fde38b"
  },
  "id": 33
}